:0C026F004475747920526174696F3A0084
:0401D8007F197E000D
:1001DC00D3EF9400EE940040147D727C00ED1D7002
:0E01EC00011CED4C70F7EF1F70E61E80E32241
:10022F007580FFC2A0D2A1D2A2AF80C2A2EF20E7F9
:02023F00F622A5
:0F025100AE07512FC2A0C2A18E80D2A2C2A2229C
:0F026000AE07512FD2A0C2A18E80D2A2C2A2227D
:10021A00AE07AC03ED6003430640430680AF0651C8
:05022A0051AF0441602A
:0901A2007B007A007908E4FDFFFE
:1001AB008B158A168917ED6003430740430780516F
:1001BB0051AB15AA16A917310360110517E5177076
:0D01CB0002051614F93103FF516080E52292
:100241007F3851517F0C51517F0651517F014151EE
:10011C0078087C007D007BFF7A02796F7E007F0C73
:10012C0011DD75140A75190A438902758CDC758A00
:10013C00DCD28CD2A9D2AFC29051411201A21201D1
:10014C00A2E51975F00A84FFE51975F00A84AAF086
:10015C00EF2430FB7F0C511AEA2430FB7F0D511A2F
:10016C007B257F0E511A20B0181201D820B00D0536
:10017C0014E514B46403E4F5148514191201D88041
:10018C00BD20B1BA31D820B109D51403E4F51485DA
:06019C00141931D880A8FF
:02000B0021FAD8
:1001FA00C0E0C0D00518E518B46403751800E51806
:10020A00C395195004D2908002C290D0D0D0E03267
:0300000002027B7E
:0C027B00787FE4F6D8FD75811902011CA3
:10000D00E709F608DFFA8046E709F208DFFA803ED5
:10001D0088828C83E709F0A3DFFA8032E309F608C2
:10002D00DFFA8078E309F208DFFA807088828C832A
:10003D00E309F0A3DFFA806489828A83E0A3F608DE
:10004D00DFFA805889828A83E0A3F208DFFA804CB8
:10005D0080D280FA80C680D4806980F2803380108F
:10006D0080A680EA809A80A880DA80E280CA8033F8
:10007D0089828A83ECFAE493A3C8C582C8CCC58370
:10008D00CCF0A3C8C582C8CCC583CCDFE9DEE78040
:10009D000D89828A83E493A3F608DFF9ECFAA9F0BF
:1000AD00EDFB2289828A83ECFAE0A3C8C582C8CC15
:1000BD00C583CCF0A3C8C582C8CCC583CCDFEADE2E
:1000CD00E880DB89828A83E493A3F208DFF980CC90
:1000DD0088F0EF60010E4E60C388F0ED2402B40489
:1000ED000050B9F582EB2402B4040050AF23234530
:0600FD00822390005D73F8
:10010300BB010689828A83E0225002E722BBFE02FA
:09011300E32289828A83E493222D
:00000001FF
